:100000000C94BF010C943A0D0C94130D0C94EC0C51
:100010000C94C50C0C94E7010C94E7010C949E0C15
:100020000C94E7010C941E0E0C94B3090C94220A54
:100030000C94E7010C94E7010C94E7010C94E701A0
:100040000C94E7010C94690E0C94E7010C94E70101
:100050000C94E7010C94E7010C94E7010C94540C08
:100060000C94E7010C94E7010C94E7010C94E70170
:100070000C94E7010C94E7010C94E7010C94E70160
:100080000C94E7010C94E7010C94E7010C94E70150
:100090000C94610D0C94E7010C94E7010C94E701BA
:1000A0000C94E7010C94CD0D0C94E70100000000C6
:1000B000240027002A002D0030000000000023004B
:1000C000260029002C002F00070605040100080A5D
:1000D0000B0C0D0900000000250028002B002E004D
:1000E00031000404040404030405020202020403B0
:1000F00002020202060606060606040402020204C2
:100100000404080201104080401020408040800814
:100110000204018040201002011080102040402085
:100120000000000200090F0000030401000C0000A1
:10013000000000000000000000000000000000219E
:10014000204F35204C313620616761666165612042
:100150006461632B61646165612066613C61613C3F
:10016000626163236120646163236164616561206E
:10017000664F36206463643C622D643C61643C6776
:1001800020643C662B643C67643C61643C622D20C7
:10019000643C64643C65643C662B643C6720643C5E
:1001A000662B643C67643C61644C38204D53203CB2
:1001B000622D643C622D64204D4C652D3C67652D9D
:1001C0003C67204D53633C61633C61204D4C20648F
:1001D0003C66643C66204F35204D5320622D67629B
:1001E0002D674D4C203E6323653E632365204D53B0
:1001F0002061666166204D4C20676323676323207E
:100200004D532066646664204D4C20653C622D652C
:100210003C622D4F36204C313672616761666165F4
:1002200061206461632361646165612066613C6192
:10023000613C626163236120646163236164616581
:10024000612066616561646163613C622D61636127
:1002500064673C622D67206567646763673C622D55
:1002600067203C61673C622D6763663C6166206481
:100270006663663C622D663C61663C67663C61660F
:100280003C622D653C6765206323653C622D653CBF
:1002900061653C6765203C66653C67653C61643C24
:1002A00066644F3520653E65653E65663E64663E24
:1002B0006420622D3E6323622D3E6323613E6466AB
:1002C0003E6420653E65653E65663E64663E6465E7
:1002D0003E643E63233E64623E643E632362203E8E
:1002E0006323616761656766652066204F36206419
:1002F000632364666463233C622063233400080B39
:1003000000020202010009040000010202000005CF
:10031000240010010524010101042402060524061D
:1003200000010705810310004009040100020A00D2
:10033000000007050202400000070583024000009C
:100340000403090412010002EF020140FB1F002315
:10035000000101020301506F6C6F6C7520436F72D6
:10036000706F726174696F6E00506F6C6F6C752086
:10037000412D53746172203332553400CD0E112457
:100380001FBECFEFDAE0DEBFCDBF11E0A0E0B1E0ED
:10039000E4E2F3E202C005900D92A037B107D9F76D
:1003A00023E0A0E7B1E001C01D92A130B207E1F760
:1003B00011E0CFEBD1E004C02197FE010E9485112E
:1003C000CE3BD107C9F70E94080F0C9490110C94F2
:1003D0000000FC018091CB01882311F13FB7F89414
:1003E00082E08093E9002091F200822F90E01816BD
:1003F000190614F481E090E0882339F0289844E647
:100400004093CA014091F1004083222339F02091AA
:10041000F200211103C02BE62093E8003FBF0895AE
:100420008FEF9FEF08952FB7F89483E08093E90052
:100430009091E800892F807295FF04C09091F2009E
:1004400080E4891B2FBF08958091C20181110DC0E6
:1004500082E08093BE0184E08093BF011092C101CD
:100460001092C00181E08093C2018EEB91E008956B
:10047000CF93DF931F92CDB7DEB76983DC01ED9197
:10048000FC910280F381E02D41E050E0BE016F5FFE
:100490007F4F09950F90DF91CF91089583E080936E
:1004A000E9008091F200882319F08AE38093E80044
:1004B00008950E94130290E00895CF93DF931F9256
:1004C000CDB7DEB7FC018485958597FD08C02FEF79
:1004D0003FEF358724870F90DF91CF910895CE01AC
:1004E00001960E94E901019719F4898190E0F3CF08
:1004F0008FEF9FEFF0CF0F931F93CF93DF931F9258
:10050000CDB7DEB78C01FC018485958597FF0BC0C4
:10051000CE0101960E94E901019771F4898190E072
:10052000F80195878487F801848595850F90DF9180
:10053000CF911F910F9108958FEF9FEFF1CFFC01A5
:100540008485958597FD0BC09FB7F89482E08093D2
:10055000E9008091F2009FBF90E0019608959FB757
:10056000F89482E08093E9008091F2009FBF90E0D0
:1005700008954091B8015091B9012091B601309190
:10058000B70142175307B4F49091E8009570E1F376
:100590009091E80092FD19C08093F1008091B8011C
:1005A0009091B90101968F739927892B19F48EEFD9
:1005B0008093E8008091B8019091B90101969093E1
:1005C000B9018093B80181E0089580E00895EF9229
:1005D000FF920F931F93CF93DF93F82E192FE62EE0
:1005E000042F81E0860F880F0E94B90283E00E94E9
:1005F000B902CF2DD12FEC0EFD2EF11CCE15DF054B
:10060000B9F007FF13C0FE0184910E94B902182FB0
:1006100080E00E94B902812321968111EFCFDF9102
:10062000CF911F910F91FF90EF9008958881EDCFAA
:1006300081E0F5CFDF92EF92FF920F931F93CF935C
:10064000DF93D82E8A01EB017B01E40EF51ECE1557
:10065000DF0559F0D7FE12C0FE0184910E94B90255
:1006600021968111F4CF0FEF1FEFC801DF91CF91D9
:100670001F910F91FF90EF90DF9008958881EECF4A
:100680000F931F93CF93DF931F92CDB7DEB782E016
:10069000898342E450E06EEF72E080E80E941A0322
:1006A0000E942402DC0112960D911C910115110586
:1006B00089F0D801ED91FC910280F381E02DBE011B
:1006C0006F5F7F4FC801099597FD04C0F801008551
:1006D0001185ECCF89810F90DF91CF911F910F9100
:1006E0000895615030F02091F100FC0120830196C3
:1006F000F8CF289884E68093CA01089581508F30FE
:1007000008F047C0E82FF0E0E857FC4F0C94851143
:10071000A503A90397039D03A103C903C903C90343
:10072000AC03B203B603BA03C003C903C403809188
:1007300080008F77809380000895809180008F7D66
:10074000F9CF80918000877FF5CF84B58F7784BD06
:10075000089584B58F7DFBCF809190008F77809333
:1007600090000895809190008F7DF9CF8091900046
:10077000877FF5CF8091C0008F778093C000089568
:100780008091C0008F7DF9CF8091C200877F8093D8
:10079000C20008951F93CF93DF93282F30E0F90113
:1007A000E05EFE4F8491F901EF5FFE4FD491F901B5
:1007B000EE51FF4FC491CC23A9F0162F81110E9456
:1007C0007E03EC2FF0E0EE0FFF1FEC52FF4FA591E0
:1007D000B4918FB7F894EC91111108C0D095DE2335
:1007E000DC938FBFDF91CF911F910895DE2BF8CF5F
:1007F000823108F08251E82FF0E0E853FF4FE49196
:1008000090917B008E2F880F880F80729F7D892B9F
:1008100080937B00E770E064E0937C0080917A0035
:10082000806480937A0080917A0086FDFCCF80916D
:1008300078009091790008953FB7F8948091A501D0
:100840009091A601A091A701B091A80126B5A89BFF
:1008500005C02F3F19F00196A11DB11D3FBFBA2F52
:10086000A92F982F8827BC01CD01620F711D811D12
:10087000911D42E0660F771F881F991F4A95D1F797
:100880000895CF92DF92EF92FF920E941C046B01B9
:100890007C010E941C046C197D098E099F09683E29
:1008A000734081059105A8F3FF90EF90DF90CF9002
:1008B00008958F929F92AF92BF92CF92DF92EF9264
:1008C000FF920F931F93CF93DF936C017B018A01FB
:1008D00080911F01882309F458C08091CB0188239F
:1008E00009F453C08091BD0180FF05C08091E000F4
:1008F00082608093E000E801B12C8AEFA82E93E09B
:10090000892E2AE3922E209711F4BB20B9F10E9480
:100910001302811106C0AA94AA20B9F10E944104D1
:10092000F2CF8C171D0611F00CF08C2F9FB7F894A6
:100930008092E9002091E80025FD02C09FBFE3CF2F
:10094000282F30E0C21BD30BF701815020F04191DA
:100950004093F100FACFE20EF31EBB2021F09092FB
:10096000E800B12CEBCF8091E80085FDE7CF9092B5
:10097000E800BB24B394209709F3F3CF5D9884E695
:100980008093BC01101611063CF081E090E0F60166
:100990009383828310E000E0C801DF91CF911F9123
:1009A0000F91FF90EF90DF90CF90BF90AF909F900E
:1009B0008F90089508950F931F93CF93DF93EC01C9
:1009C000888581112FC0898590E0FC01EF5FFE4F83
:1009D0008E519F4F21E028872A85222309F44CC09D
:1009E0002491FC0184918823C9F090E0880F991F1D
:1009F000FC01E455FF4F45915491FC01EC52FF4F2F
:100A0000A591B4919FB7F894FA013081822F809517
:100A100083238083EC91E22BEC939FBF8FE090E0E7
:100A20000197F1F7298530E0F901E05EFE4F8491EE
:100A3000F901EF5FFE4F0491F901EE51FF4F149160
:100A4000112309F437C081110E947E03E12FF0E0E9
:100A5000EE0FFF1FE654FF4FA591B491EC910E23CA
:100A600031E009F430E0832F2B8582278170DF91FC
:100A7000CF911F910F9108952491FC0184918823B7
:100A800009F4CCCF90E0880F991FFC01E455FF4F8B
:100A900045915491FC01EC52FF4FA591B4919FB741
:100AA000F894FA0180812095822380838C91E22F33
:100AB000E823B2CF80E0D8CF8091B201E091B301BA
:100AC000F091B401882339F084919FEB980F9A310B
:100AD00020F4805E08958081F8CF803269F42091FF
:100AE000B3013091B401A9014F5F5F4F5093B4013E
:100AF0004093B301232B01F708951F93CF93DF9306
:100B00000E945C05D0E0C0E01AE090ED980F9A30AA
:100B1000B8F41C9F90011D9F300D1124E901C80FEE
:100B2000D11D87FDDA95E0978091B3019091B401D2
:100B300001969093B4018093B3010E945C05E5CFC8
:100B4000CE01DF91CF911F9108953F924F925F9216
:100B50006F927F928F929F92AF92BF92CF92DF92CD
:100B6000EF92FF920F931F93CF93DF93CDB7DEB732
:100B700028970FB6F894DEBF0FBECDBF7A83698386
:100B8000142F20919C0121111BC021E020939C0176
:100B9000109272001092C00034E03093C10039E02E
:100BA0003093C2002093C30023E02093BF0028EEBF
:100BB0002093D1001092BF001092D200579A7894DF
:100BC0001092130101E097FF02C09F770AE028E22C
:100BD000029F202D1124422F50E058874F83841705
:100BE000950758F098878F83013039F48131974207
:100BF00020F040E157E258874F83402E512C712C52
:100C0000612C8F819885969587959C0150E040E0F6
:100C10002B833C834D835E834F8158854A01B12CE1
:100C2000A12CA301920160E072E18AE790E00E94AA
:100C300055112B813C814D815E81620F731F841F92
:100C4000951FA50194010E94FA1069017A01EE2412
:100C5000FF24312C3394C11434E0D306E104F104B1
:100C600008F120E032E14AE750E0032C04C055953A
:100C70004795379527950A94D2F7C301B2010E9490
:100C800055112B813C814D815E81620F731F841F42
:100C9000951FA50194010E94FA1069017A01EE24C2
:100CA000FF24D8CF0A3049F48F81988505966AE0F1
:100CB00070E00E94711178876F834F815885483E9C
:100CC00083E0580769F029813A81DA010E944611D0
:100CD00028EE33E040E050E00E94FA103A83298386
:100CE000109272008091C100807F382A3092C1003A
:100CF000BB27AF2D9E2D8D2D8093BF00C092D100BC
:100D0000103108F01FE080E190E0811B910904C0E0
:100D1000F694E794D794C7948A95D2F78D2D9927A6
:100D20008093BF00C092D20029813A8130939E0106
:100D300020939D0189B38FEF89BB84E0809372007B
:100D400028960FB6F894DEBF0FBECDBFDF91CF91CE
:100D50001F910F91FF90EF90DF90CF90BF90AF90D9
:100D60009F908F907F906F905F904F903F900895ED
:100D70006F927F928F929F92AF92BF92CF92DF92AB
:100D8000EF92FF920F931F93CF93DF939090080100
:100D900080919F018823E9F08091B1018823C9F0F7
:100DA0006091B10170E040E088EE93E00E94A505FB
:100DB0001092B101DF91CF911F910F91FF90EF90B1
:100DC000DF90CF90BF90AF909F908F907F906F906B
:100DD00008957724739470ECA72E7DE5B72EEAE092
:100DE0006E2EF4E08F2EA0EDCA2EA7E0DA2EB4E02E
:100DF000EB2EF12C04EF11E0CFE0D0E00E945C0577
:100E00002091B3013091B4012F5F3F4F3093B40173
:100E10002093B301853609F473C00CF047C08136C6
:100E200009F4B4C024F58C3309F468C08E3309F496
:100E300063C0813209F043C080920801D09205015D
:100E4000C0920401F0920701E092060110930301A1
:100E500000930201D0930101C093000110929F0101
:100E6000909008018091020190910301C7CF8336D1
:100E700009F48FC0C0E0DBE0843614F0C0E0D2E0BB
:100E80004CE0949ED00D11240E945C05982F977F12
:100E9000933209F080C08091B3019091B401019622
:100EA0009093B4018093B301DF5FEECF8D3609F4E8
:100EB00045C054F4873651F134F18C3651F110921B
:100EC000B4011092B30176CF823709F44CC044F4D8
:100ED0008F36A9F70E947D05982E809308018ECF4A
:100EE000843709F443C0863751F70E947D059093FB
:100EF00001018093000182CF939480CF9A947ECF9A
:100F0000C0E0D4E0BDCFC0E0D5E0BACFC0E0D7E0CC
:100F1000B7CF0E947D0590930701809306018091D1
:100F200004019091050160910601709107010E94F2
:100F30007111709303016093020160CF0E945C0500
:100F40008C3661F410929F018091B3019091B401AD
:100F500001969093B4018093B30150CF70929F019A
:100F60001092B101F1CFC1E0D0E08ACF0E947D059F
:100F7000BC01C5010E947111669EC001679E900D63
:100F800011249093050180930401C9CFC0E0D9E0FA
:100F900077CFC0E0E9CF8D3269F48091B3019091B1
:100FA000B40101969093B4018093B301D1500E9493
:100FB0005C05F1CF0091020110910301815388304B
:100FC00058F400910401109105010E947D05BC01B7
:100FD000C8010E9471118B017801F694E7940E9478
:100FE0005C058E3261F48091B3019091B401019659
:100FF0009093B4018093B3010E0D1F1DEECF80912D
:101000009F01882349F0C801969587958093B10187
:101010008091B101081B1109E0900001F0900101DD
:10102000C11104C0DF3F11F0E11014C040E0B8016D
:1010300088EE93E0DF91CF911F910F91FF90EF9099
:10104000DF90CF90BF90AF909F908F907F906F90E8
:101050000C94A505D13128F0C0EFCD0FC03608F0B3
:10106000CFE58C2F6CE00E946511582F44EF4503AB
:10107000900111242C0F311D2C303105C8F4220FA2
:10108000331FF901E05EFE4F208131818730D9F0B6
:10109000082E02C0220F331F0A94E2F7823058F064
:1010A000C90105966AE070E00E947111CB0105C08C
:1010B00030E020E0EBCFC90190584E2D403108F0D0
:1010C0004FE0B801B7CFC90126E0880F991F2A95D4
:1010D000E1F7029665E070E0E7CF2E98269A2D980A
:1010E000259A2A98229A2998219A80EA809380004A
:1010F00081E18093810080E991E090938700809363
:101100008600109289001092880010928B00109235
:101110008A0008959FB191708CB186FB882780F971
:10112000892720919601309197014091AE0150910D
:10113000AF0129273827231B330B240F351F30938A
:10114000AF012093AE01309196012091970138179D
:1011500029F0291719F021E0209395018093960139
:1011600090939701089524982C9A6A98729A6E9891
:10117000769A8098889A81E08093680090E19093B5
:101180006B008BBB8AE898E0909312018093110169
:10119000EAE6F0E080818F7C80618083EE9A8CB1FA
:1011A00082FB882780F980939A0193B180919A01FC
:1011B000929591708927809399011092AC011092B9
:1011C000AB01109298018FB18170809397019CB10F
:1011D0008091970196FB992790F989278093960132
:1011E0001092AF011092AE01109295010895CF9325
:1011F000DF93FC018481882391F080E0948189173A
:1012000068F4EF01C80FD11D9D81A281AC0FBD2FE5
:10121000B11DAE5BBF4F9C938F5FF0CF1482DF9107
:10122000CF910895EFE0F0E03197F1F7FC011382E0
:101230000895EFE0F0E03197F1F7DC011296EC91C0
:10124000129721E02E0F12962C93E80FF92FF11D23
:1012500085890895CF93DF93EC018FE090E00197AB
:10126000F1F78B81811110C0DE015596FE01EE5B16
:10127000FF4F8DE201900D928A95E1F76A8381E03C
:101280008B83DF91CF9108958C81813108F01C828E
:101290008C81FE01E80FF11D65838F5F8C83F1CF98
:1012A0000E948B11CF93DF93A2EEB0E09C911C9231
:1012B000E9EEF0E020811082C0EFD0E038811882A2
:1012C00040E028994160209942602098289A80E166
:1012D0008A95F1F783B141FB0EF0209840FB0EF0A8
:1012E00028980EF4289A41FB0EF4209A1082388335
:1012F00020839C9380958170DF91CF910895CF9347
:10130000DF93A2EEB0E09C911C92E9EEF0E0208128
:101310001082C0EFD0E03881188240E05D994160D2
:101320005599426055985D9A80E18A95F1F789B1A7
:1013300041FB0EF0559840FB0EF05D980EF45D9A5F
:1013400041FB0EF4559A1082388320839C9390E0E1
:1013500025E0959587952A95E1F780959095817080
:10136000DF91CF9108951F920F920FB60F92112423
:101370008F939F938091E1009091E100937F9093F0
:10138000E10083FF0FC01092E90091E09093EB0021
:101390001092EC0092E39093ED001092CB0198E054
:1013A0009093F00082FF22C093E09093E900909127
:1013B000F200992319F09AE39093E8009091BC0110
:1013C000992341F09091BC0191509093BC019111EF
:1013D00001C05D9A9091CA01992341F09091CA0190
:1013E00091509093CA01911101C0289A84FF18C0AE
:1013F0008091E2008E7E81608093E2008091E10026
:101400008F7E8093E1008091BD018E7E806180930C
:10141000BD019F918F910F900FBE0F901F90189557
:1014200080FFF7CF8091E2008E7E80618093E200A2
:101430008091E1008E7E8093E1008091BD018E7EDF
:101440008160E5CF1F920F920FB60F921124CF92B9
:10145000DF92EF92FF920F931F932F933F934F933F
:101460005F936F937F938F939F93AF93BF93EF930C
:10147000FF93CF93DF93CDB7DEB76C97DEBFCDBFC1
:101480001092E9008091E80083FF25C068E0CE015A
:1014900045960E94710382EF8093E8008D8987FF53
:1014A00039C09091E80090FFFCCF982F907609F01A
:1014B00034C19E894F89588D2F89F88C911131C084
:1014C000803861F58091BB018093F1001092F100AA
:1014D0008EEF8093E8006C960FB6F894DEBF0FBED7
:1014E000CDBFDF91CF91FF91EF91BF91AF919F91D0
:1014F0008F917F916F915F914F913F912F911F91AC
:101500000F91FF90EF90DF90CF900F900FBE0F9054
:101510001F9018959EEF9093E800C7CF1092F100AE
:10152000D5CF913059F48111D3CF4130510581F697
:101530008091BB018D7F8093BB01CACF933049F46A
:101540008111C6CF4130510519F68091BB018260EF
:10155000F2CF953041F48091E80080FFFCCF206805
:101560002093E300B5CF963009F0A9C00B8D1C8DF8
:1015700022E01092E9001092B9011092B801F21223
:101580002EC01092B7011092B6010E9440031F8234
:1015900099E09983FA8291E09E8390EA98879AEF86
:1015A00099872091B8013091B901275F3F4F3C8363
:1015B0002B838D831092E9001092B9011092B8012B
:1015C0001093B7010093B60149E050E0BE016F5F90
:1015D0007F4F80E00E941A030E94400379CF10934E
:1015E000B7010093B6010E942402DC0112960D910E
:1015F0001C910115110509F451C1D801ED91FC911F
:101600000480F581E02DBE016B5E7F4FC801099516
:10161000009709F03EC1F80100851185EACFF3E09B
:10162000FF120EC08F89882309F440C0823061F414
:1016300040E862E189E693E00E94E702811148CF29
:1016400081E28093EB0047CF813029F440E862E1EA
:1016500086E593E0F1CF833099F70E942402DC0104
:101660001296ED90FC908E010F5F1F4F6801E11400
:10167000F10479F0D701ED91FC910680F781E02D1E
:10168000B801C7010995080F111DF701E084F18425
:10169000EECFD8011C92F60101900020E9F73197B6
:1016A000BF016C197D0940E0C601C6CF60E473E05C
:1016B000FB01449150E080E80E941A0309CF973063
:1016C00009F4BECF983021F481E08093F10000CF7F
:1016D000993009F0FDCE837009F0B2CFE9E3F1E073
:1016E00081E031E096E32191222371F08093E900BB
:1016F0003093EB00DF0111972C912093EC00909335
:10170000ED008F5F873079F78EE78093EA001092C3
:10171000EA008F898093CB01DBCE8B8D9C8D10925C
:10172000E9001092B9011092B8019093B70180932B
:10173000B601898D811192C08E899D89913A49F4B3
:10174000813209F07DCF47E050E068E171E080E050
:10175000B3CF913209F074CF833269F48F89988DB9
:10176000B0E0A0E08093140190931501A0931601BE
:10177000B0931701ADCE803269F48091E80082FF0A
:10178000FCCF67E088E191E00E9471038BEF8093CA
:10179000E8009ECE823209F09BCE8F8980931F0194
:1017A000EEEFFFE7859194918B3F9C4D51F1E0E086
:1017B000F8E08091180190911901A0911A01B0915F
:1017C0001B01803B9440A105B105F1F480911F01FC
:1017D00080FD1AC0EE3F8AE0F80789F587E797E7B2
:1017E00091838083809160008093BA0188E19BE0BF
:1017F0000FB6F894A895809360000FBE9093600098
:1018000067CEEEEFFAE0D5CF808191818737974799
:1018100009F05ECEA8958091600088618093600099
:101820008091BA0180936000EE3F2AE0F20789F0D0
:101830008091FE0A9091FF0A9183808349CE808136
:1018400091818737980751F29093FF0A8093FE0A9F
:10185000C5CF1092FF0A1092FE0A3ACE0E942402CF
:10186000DC0112960D911C910115110509F4E8CEC9
:10187000D801ED91FC910190F081E02DBE016B5EED
:101880007F4FC8010995811123CEF801008511858C
:10189000EBCF181619060CF41BCED2CEF1E0FF12D6
:1018A000BECE64E473E004CF1F920F920FB60F9286
:1018B00011242F933F938F939F93AF93BF93809166
:1018C000A1019091A201A091A301B091A401309136
:1018D000A00123E0230F2D3758F50196A11DB11D5E
:1018E0002093A0018093A1019093A201A093A30152
:1018F000B093A4018091A5019091A601A091A701A8
:10190000B091A8010196A11DB11D8093A5019093EE
:10191000A601A093A701B093A801BF91AF919F9199
:101920008F913F912F910F900FBE0F901F901895A0
:1019300026E8230F0296A11DB11DD2CF1F920F9250
:101940000FB60F9211242F933F934F935F936F9392
:101950007F938F939F93AF93BF93EF93FF93E09108
:101960001101F09112010995FF91EF91BF91AF9193
:101970009F918F917F916F915F914F913F912F91A7
:101980000F900FBE0F901F9018951F920F920FB6D9
:101990000F9211242F933F934F935F936F937F93F5
:1019A0008F939F93AF93BF93EF93FF93E0910F01BA
:1019B000F09110010995FF91EF91BF91AF919F9127
:1019C0008F917F916F915F914F913F912F910F90E8
:1019D0000FBE0F901F9018951F920F920FB60F9287
:1019E00011242F933F934F935F936F937F938F9324
:1019F0009F93AF93BF93EF93FF93E0910D01F0910D
:101A00000E010995FF91EF91BF91AF919F918F9139
:101A10007F916F915F914F913F912F910F900FBEEA
:101A20000F901F9018951F920F920FB60F921124CE
:101A30002F933F934F935F936F937F938F939F93D6
:101A4000AF93BF93EF93FF93E0910B01F0910C01E3
:101A50000995FF91EF91BF91AF919F918F917F91E8
:101A60006F915F914F913F912F910F900FBE0F900B
:101A70001F9018951F920F920FB60F9211242F935B
:101A80003F934F935F936F937F938F939F93AF9306
:101A9000BF93EF93FF93E0910901F0910A0109953B
:101AA000FF91EF91BF91AF919F918F917F916F9136
:101AB0005F914F913F912F910F900FBE0F901F900C
:101AC00018951F920F920FB60F9211242F933F93E8
:101AD0004F935F936F937F938F939F93AF93BF9336
:101AE000EF93FF938091B9008038B9F1C8F488234F
:101AF00009F44FC0803629F185EC8093BC00FF913A
:101B0000EF91BF91AF919F918F917F916F915F9175
:101B10004F913F912F910F900FBE0F901F901895EE
:101B2000883A49F1883B39F1803A31F78091A9012F
:101B30009091AA01DC01ED91FC910680F781E02DE6
:101B40000AC08091A9019091AA01DC01ED91FC915C
:101B50000480F581E02D0995CFCF8091A901909166
:101B6000AA016091BB00DC01ED91FC910190F08134
:101B7000E02D0995C1CF8091A9019091AA01DC01C6
:101B8000ED91FC910280F381E02D09958093BB00DB
:101B9000B3CF84ED8093BC00AFCF1F920F920FB6EE
:101BA0000F9211242F933F934F935F936F937F93E3
:101BB0008F939F93AF93BF93EF93FF9380919D017A
:101BC00090919E019C012150310930939E012093F8
:101BD0009D01892B11F51092720078948091C100BB
:101BE000807F84608093C10083E08093BF0088EE93
:101BF0008093D1001092BF001092D20081E08093B8
:101C000013018091B3019091B401892B31F080913F
:101C10009B01811102C00E94B806FF91EF91BF9114
:101C2000AF919F918F917F916F915F914F913F9174
:101C30002F910F900FBE0F901F9018951F920F922B
:101C40000FB60F9211242F933F934F936F937F936F
:101C50008F939F938CB1282F30E03595279535953C
:101C60002795422F417083B190E064E09595879568
:101C70006A95E1F7822781702091990190919A01EC
:101C80006091AB017091AC0124279827291B330B7D
:101C9000260F371F3093AC012093AB01209199019F
:101CA00090919A01281729F0941719F091E09093D8
:101CB00098018093990140939A019F918F917F9110
:101CC0006F914F913F912F910F900FBE0F901F90EA
:101CD00018951F920F920FB60F9211242F933F93D6
:101CE0008F939F93EF93FF938091940187FF1FC081
:101CF0001092850010928400809194018F5F8093F0
:101D000094018091940187FF04C0809194018C30EC
:101D1000ACF08091840090918500049680349C49B9
:101D200090F1809184009091850004962EC080915E
:101D3000940187FFE1CF80919401DECF2091840050
:101D400030918500E09194018E2FEE0F990BFC01EC
:101D5000EE0FFF1FE80FF91FE059FE4F81819281BE
:101D6000820F931F90938900809388008091940143
:101D7000FF91EF919F918F913F912F910F900FBE07
:101D80000F901F90189580E49CE9909389008093B0
:101D900088008FEF80939401EBCFECECF1E013829D
:101DA000128288EE93E0A0E0B0E084839583A6835E
:101DB000B78383E491E0918380838FEF9FEF9587D2
:101DC0008487E8E3F2E087E691E0918380831382E1
:101DD0001482ECE2F2E01282158210868EE0818796
:101DE00081E08287838781E691E091838083E4E2CA
:101DF000F2E0128215828BE591E091838083ECE121
:101E0000F2E01282158285E591E091838083089546
:101E1000789484B5826084BD84B5816084BD85B5C5
:101E2000826085BD85B5816085BD80916E008160D1
:101E300080936E0010928100809181008260809377
:101E40008100809181008160809381008091800079
:101E500081608093800080919100826080939100E6
:101E600080919100816080939100809190008160C9
:101E7000809390008091C10084608093C100809124
:101E8000C10082608093C1008091C1008160809315
:101E9000C1008091C30081608093C3008091C00025
:101EA00082608093C0008091C20081608093C200F4
:101EB00080917A00846080937A0080917A008260B9
:101EC00080937A0080917A00816080937A0080917B
:101ED0007A00806880937A001092CB011092BB0147
:101EE0001092BD018091D70081608093D70080EA75
:101EF0008093D80089B5806189BD89B5826089BD2C
:101F000009B400FEFDCF0E9441048091D8008F7C6F
:101F100080618093D8008091E000807F8093E00012
:101F20008091E1008E7E8093E1008DE08093E2005D
:101F3000559A209A88E392E09093AA018093A90190
:101F400088E28093BA0061E082E00E94CA0361E007
:101F500083E00E94CA0385EC8093BC0030E0E32E4E
:101F600030E0F32E992493944DEEC42E42E0D42E0B
:101F70005FE3A52E51E0B52EF8948DE2EAE7F2E09A
:101F8000A4EDB2E001900D928A95E1F778948DE28C
:101F9000E4EDF2E0A7EAB2E001900D928A95E1F754
:101FA0008CE292E00E94DB048093D70284E292E00C
:101FB0000E947F098093D8028CE192E00E9452092E
:101FC0008093D90218E0D0E0C0E083E10E94F803DA
:101FD000C80FD91F1150C9F79E01A3E5B7E00E94B1
:101FE000461161507E4F8F4F9F4F2AE096958795FF
:101FF000779567952A95D1F77093DF026093DE029B
:102000008091AD01811104C09092AD010E94B3088E
:10201000F8948091AB019091AC0178949093FC027C
:102020008093FB028091AD01811104C09092AD01BB
:102030000E94B308F8948091AE019091AF0178941A
:102040009093FE028093FD0280911301882309F48E
:10205000B1C02091B3013091B40181E0232B09F488
:1020600080E08093000300EE12E0C0E08C2F0E941D
:10207000F803F801819391938F01CF5FC630B1F7D8
:102080008091D402882309F497C0479A3F9A80919F
:10209000D502811193C05D9A559A8091D602811123
:1020A0008FC0289A209AC091DC02D091DD02009165
:1020B000DA021091DB028091B001811104C090928C
:1020C000B0010E946D0881E01016110624F01195F0
:1020D0000195110980E00D32F1E01F0714F00CE2C8
:1020E00011E010938B0000938A00882309F46AC0E2
:1020F0002A9A229A8091B001811104C09092B00175
:102100000E946D0880E0D7FF04C0D195C195D10928
:1021100081E0CD3291E0D90714F0CCE2D1E0D09348
:102120008900C0938800882309F44EC0299A219A17
:102130008091B5019091EC02992309F447C0811177
:1021400048C010927200D092B401C092B3011092B4
:10215000B2011092B1010E94B8069092B50180912F
:10216000FF02882371F01092FF0210927200B09269
:10217000B401A092B3019092B2011092B1010E94F9
:10218000B806F894E4EDF2E0DF0181919D979C910F
:10219000981721F0DF01AB55B1098C9383E0E13052
:1021A000F80791F77894E114F10409F4E5CE0E9460
:1021B0000000E2CE81E055CF479868CF5D986CCFA4
:1021C000289870CF2A9895CF2998B1CF882309F401
:1021D000C6CF80911301882309F4C1CF8091B30148
:1021E0009091B401892B09F0BACF1092EC021092B1
:1021F000B501B5CF052E97FB1EF400940E94111176
:1022000057FD07D00E94241107FC03D04EF40C9414
:10221000111150954095309521953F4F4F4F5F4F8D
:10222000089590958095709561957F4F8F4F9F4F42
:1022300008950E944611A59F900DB49F900DA49FF4
:10224000800D911D11240895A1E21A2EAA1BBB1B1B
:10225000FD010DC0AA1FBB1FEE1FFF1FA217B30772
:10226000E407F50720F0A21BB30BE40BF50B661F88
:10227000771F881F991F1A9469F76095709580954C
:1022800090959B01AC01BD01CF010895A29FB001C3
:10229000B39FC001A39F700D811D1124911DB29F9A
:1022A000700D811D1124911D0895DB018F939F9363
:1022B0000E941911BF91AF91A29F800D911DA39F04
:1022C000900DB29F900D11240895991B79E004C0E0
:1022D000991F961708F0961B881F7A95C9F7809565
:1022E0000895AA1BBB1B51E107C0AA1FBB1FA6175D
:1022F000B70710F0A61BB70B881F991F5A95A9F7AF
:1023000080959095BC01CD010895EE0FFF1F0590BB
:10231000F491E02D099481E090E0F8940C949011F0
:04232000F894FFCF5F
:102324000F00F401D007040004DA04DA04DA04DA52
:1023340004DA0401FFFFFFFF00E1000000000000D9
:102344009C01B501CF01EA01070226024702690296
:102354008E02B502DE020A0300C180810000000083
:102364000000003802590459024E029F025D027BAC
:1023740002000000005209000000007F0900000074
:1023840000DB04000000002A0919091209F70800FB
:00000001FF
